:100000000C9406030C942E030C942E030C942E03D4
:100010000C942E030C942E030C942E030C942E039C
:100020000C942E030C94392C0C942E030C942E0358
:100030000C942E030C942E030C942E030C942E037C
:100040000C94EF2B0C942E030C94BD2B0C94972B3B
:100050000C942E030C942E030C942E030C942E035C
:100060000C942E030C942E034E414E494E49545984
:10007000494E46CDCCCC3D0AD7233C17B7D1387773
:10008000CC2B329595E6241FB14F0A000020410089
:1000900000C84200401C4620BCBE4CCA1B0E5AAED3
:1000A000C59D7400407A10F35A00A0724E180900E2
:1000B00010A5D4E80000E87648170000E40B5402CD
:1000C0000000CA9A3B000000E1F505000080969808
:1000D00000000040420F000000A086010000001058
:1000E0002700000000E8030000000064000000009A
:1000F000000A00000000000100000000002C76D87B
:1001000088DC674F0823DFC1DFAE59E1B1B796E560
:10011000E3E453C63AE651997696E8E6C28426EBC4
:10012000898C9B62ED407C6FFCEFBC9C9F40F2BAD7
:10013000A56FA5F490055A2AF75C936B6CF9676D6F
:10014000C11BFCE0E40D47FEF520E6B500D0ED90C4
:100150002E0300943577050080841E080000204E91
:100160000A000000C80C333333330F986E1283112A
:1001700041EF8D2114893BE65516CFFEE6DB18D101
:10018000844B381BF77C1D901DA4BBE424203284D3
:10019000725E228100C9F124ECA1E53D272C707527
:1001A0006D703D002C78792073746167653D002C7B
:1001B00070726F67726573733D002C7A3D002C7905
:1001C0003D00783D007374617475733A002000201F
:1001D000003A003A003D00002C002C002C00003AB0
:1001E0000049646C650049646C6500486F6D696E18
:1001F00067205A0049646C65007A746F7000496426
:100200006C650049646C650049646C6500486F6DFD
:10021000696E6720590049646C6500486F6D696EAE
:1002200067205800686F6D65207879007A00790042
:100230007800737720726573756D650049646C652D
:100240000049646C65004D6F76696E670049646CA7
:1002500065007A2D007A2D2D007A2D0049646C6599
:100260000049646C65004D6F76696E670049646C87
:1002700065007A2B007A2B2B007A2B0049646C6581
:100280000049646C650049646C65004D6F76696E69
:1002900067007800790078007273747200636F6190
:1002A0007420726573703A20616E73776572203DB9
:1002B000207965732C20746F74616C206C656E6797
:1002C0007468203D200072737472006D787400634E
:1002D0006F617420726573703A20616E7377657216
:1002E000203D206E6F2C206D657373616765203D26
:1002F000205468652070756D7020776F6E277420AC
:1003000062652061626C6520746F2070757368206F
:100310007468697320616D6F756E74206F662076E6
:100320006F6C756D652E006D786400636F6174206D
:10033000726573703A20616E73776572203D206E2E
:100340006F2C206D657373616765203D205468656F
:100350002074726176656C20737065656420796FB6
:100360007520656E7465726564206973206E6F74A4
:100370002077697468696E2074686520706F737384
:1003800069626C6520686172647761726520726170
:100390006E67652C2028302C2032355D206D6D2F46
:1003A0007300636F617420726573703A20616E73BD
:1003B000776572203D206E6F2C206D6573736167C9
:1003C00065203D2054686520636F6174206172650B
:1003D0006120686569676874206973206F7574733C
:1003E00069646520746865206C696D697473206F39
:1003F0006620746865206C696E6561722073746133
:1004000067652E00636F617420726573703A2061B6
:100410006E73776572203D206E6F2C206D6573734F
:10042000616765203D2054686520636F61742061B9
:10043000726561207769647468206973206F7574D0
:100440007369646520746865206C696D69747320D4
:100450006F6620746865206C696E656172207374C4
:100460006167652E00636F617420726573703A2056
:10047000616E73776572203D206E6F2C206D657301
:1004800073616765203D205468652073657420633F
:100490006F617420737065656420697320746F6F79
:1004A000206D75636820666F7220746865206C69C2
:1004B0006E6561722073746167652E007273747269
:1004C000005100737065656400636F61747300733D
:1004D00074657059006C656E59006C656E580053F8
:1004E000657420436F61740073657420636F617479
:1004F00000726573756D6520636F6174007061755E
:10050000736564007061757365640070617573650F
:1005100020636F61740061626F7274207265737022
:100520003A20616E73776572203D2073746F70702E
:1005300065640061626F727400516F7361696E204F
:100540004553530050756D70696E670049646C6562
:1005500000436F6174696E67005061757365640074
:100560004D6F76696E6700506175736564004D6FFD
:1005700076696E670049646C650049646C6500507B
:100580006175736564004D6F76696E670049646CD0
:10059000650049646C650049646C65004D6F76695F
:1005A0006E670049646C650049646C65000000007A
:1005B0000800020100000304070000000000000022
:1005C0000049646C650049646C650000000000250A
:1005D0000028002B0000000000240027002A00044F
:1005E00004040404040404020202020202030303DA
:1005F00003030301020408102040800102040810D4
:1006000020010204081020001330C53111241FBE40
:10061000CFEFD8E0DEBFCDBF23E0AAE5B1E001C057
:100620001D92AD31B207E1F711E0A0E0B1E0E8EED4
:10063000F6E702C005900D92AA35B107D9F713E08D
:10064000C5E0D3E004C02197FE010E943E39C430CA
:10065000D107C9F70E94AF300C94673B0C9400009F
:1006600090E0FC01ED50FA4F249181529A4FFC0129
:100670008491882399F090E0880F991FFC01EB5238
:10068000FA4FA591B491FC01E553FA4F85919491ED
:100690008FB7F894EC91E22BEC938FBF08950895F7
:1006A000AF92BF92CF92DF92EF92FF920F931F9380
:1006B000CF93DF936C017B018B01040F151FEB01BE
:1006C0005E01AE18BF08C017D10759F06991D60175
:1006D000ED91FC910190F081E02DC6010995892BE7
:1006E00079F7C501DF91CF911F910F91FF90EF90A6
:1006F000DF90CF90BF90AF900895FC014481558169
:100700006081718186E392E00C945003FC01538D6B
:10071000448D252F30E0842F90E0821B930B5417DB
:1007200010F0CF96089501970895FC01918D828D68
:10073000981761F0A28DAE0FBF2FB11D5D968C9101
:10074000928D9F5F9F73928F90E008958FEF9FEF40
:100750000895FC01918D828D981731F0828DE80FFC
:10076000F11D858D90E008958FEF9FEF0895FC01B6
:10077000918D228D892F90E0805C9F4F821B910983
:100780008F739927089586E392E00E94B70321E0D2
:10079000892B09F420E0822F089580E090E0892BD6
:1007A00029F00E94C30381110C9400000895FC01FC
:1007B000A48DA80FB92FB11DA35ABF4F2C91848DC2
:1007C00090E001968F739927848FA689B7892C931F
:1007D000A089B1898C91837080648C93938D848D72
:1007E000981306C00288F389E02D80818F7D808375
:1007F0000895EF92FF920F931F93CF93DF93EC0135
:1008000081E0888F9B8D8C8D98131AC0E889F989B7
:10081000808185FF15C09FB7F894EE89FF896083BA
:10082000E889F98980818370806480839FBF81E03B
:1008300090E0DF91CF911F910F91FF90EF9008957D
:10084000F62E0B8D10E00F5F1F4F0F731127E02E58
:100850008C8D8E110CC00FB607FCFACFE889F98990
:10086000808185FFF5CFCE010E94D703F1CFEB8DBC
:10087000EC0FFD2FF11DE35AFF4FF0829FB7F89464
:100880000B8FEA89FB8980818062CFCF682F86E356
:1008900092E00C94F9030F931F93CF93DF938C0195
:1008A000D0E0C0E0F801EC0FFD1F6491662341F039
:1008B00086E392E00E94F903892B11F02196F2CF92
:1008C000CE01DF91CF911F910F910895CF93DF93C8
:1008D000EC01888D8823B9F0AA89BB89E889F98958
:1008E0008C9185FD03C0808186FD0DC00FB607FC8D
:1008F000F7CF8C9185FFF2CF808185FFEDCFCE01C0
:100900000E94D703E9CFDF91CF91089590E0FC01D9
:10091000E355FA4F2491FC01ED50FA4F3491FC015C
:10092000E152FA4FE491EE23C9F0222339F023304B
:1009300001F1A8F4213019F1223029F1F0E0EE0F95
:10094000FF1FE553FA4FA591B4918FB7F894EC913E
:10095000611126C030953E233C938FBF0895273008
:10096000A9F02830C9F0243049F7809180008F7DAC
:1009700003C0809180008F7780938000DFCF84B5A3
:100980008F7784BDDBCF84B58F7DFBCF8091B000A6
:100990008F778093B000D2CF8091B0008F7DF9CF58
:1009A0003E2BDACF3FB7F8948091C0019091C101FE
:1009B000A091C201B091C30126B5A89B05C02F3FED
:1009C00019F00196A11DB11D3FBFBA2FA92F982F75
:1009D0008827BC01CD01620F711D811D911D42E070
:1009E000660F771F881F991F4A95D1F70895CF92F8
:1009F000DF92EF92FF920E94D2046B017C010E9471
:100A0000D2046C197D098E099F09683E73408105E7
:100A10009105A8F3FF90EF90DF90CF9008952FB746
:100A2000F8946091BC017091BD018091BE019091DC
:100A3000BF012FBF08954F925F926F927F928F9266
:100A40009F92AF92BF92CF92DF92EF92FF920F935D
:100A50001F93CF93DF9300D000D000D0CDB7DEB787
:100A60000E94D2046B017C0160912A0270912B02DA
:100A700080912C0290912D020E94EA354B015C017D
:100A800060912E0270912F0280913002909131027C
:100A90000E94EA359B01AC01C501B4010E945B379D
:100AA0004B015C012091FF02309100034091010352
:100AB000509102030E94493669837A838B839C8319
:100AC0008091320290913302A0913402B0913502AC
:100AD000A7019601281B390B4A0B5B0BCA01B90110
:100AE0000E94EA3520E034E244E759E40E94C83726
:100AF000A50194010E9449362091130330911403FB
:100B000040911503509116030E945C3760931303C4
:100B1000709314038093150390931603C0900303FE
:100B2000D0900403E0900503F090060320E030E04D
:100B3000A901C701B6010E94E335811108C01092D6
:100B400013031092140310921503109216032091B0
:100B50001303309114034091150350911603C701FC
:100B6000B6010E9449364B015C0110910F03309190
:100B700010033E83409111034D830091120320E046
:100B800030E0A901C701B6010E94E3358823D1F006
:100B9000A5019401612F7E818D81902F0E94E33504
:100BA00087FF66C2A7019601612F7E818D81902FFC
:100BB0000E94C83760931303709314038093150346
:100BC00090931603A501940169817A818B819C81A0
:100BD0000E945C376B017C019B01AC01612F7E811F
:100BE0008D81902F0E94E33587FD18C010910B0373
:100BF00050910C035E8380910D038D8300910E0351
:100C0000212F352F482F502FB601C7010E94E33501
:100C100087FD04C01C2DDE82ED820F2D612F7E81A9
:100C20008D81902F0E943A387A83698316161706B1
:100C30000CF033C2072E000C880B990B0E94EA358A
:100C400020E030E040E950E40E9449360E944138FB
:100C500070938B0060938A009BB188B19B7F8B7FE0
:100C600029813A8137FF24C294609BB988B90E94D8
:100C7000D2046B017C0160911E0270911F02809171
:100C80002002909121020E94EA354B015C016091A3
:100C900022027091230280912402909125020E94E9
:100CA000EA359B01AC01C501B4010E945B374B01E1
:100CB0005C012091E3023091E4024091E502509101
:100CC000E6020E94493669837A838B839C838091F4
:100CD000260290912702A0912802B0912902A70133
:100CE0009601281B390B4A0B5B0BCA01B9010E9404
:100CF000EA3520E034E244E759E40E94C837A50110
:100D000094010E9449362091F7023091F8024091F7
:100D1000F9025091FA020E945C376093F7027093D7
:100D2000F8028093F9029093FA02C090E702D09003
:100D3000E802E090E902F090EA0220E030E0A90148
:100D4000C701B6010E94E335811108C01092F70275
:100D50001092F8021092F9021092FA022091F70212
:100D60003091F8024091F9025091FA02C701B601A0
:100D70000E9449364B015C011091F3023091F4025C
:100D80003E834091F5024D830091F60220E030E071
:100D9000A901C701B6010E94E3358823D1F0A5015E
:100DA0009401612F7E818D81902F0E94E33587FF12
:100DB00086C1A7019601612F7E818D81902F0E94AF
:100DC000C8376093F7027093F8028093F90290930A
:100DD000FA02A501940169817A818B819C810E942C
:100DE0005C376B017C019B01AC01612F7E818D81A1
:100DF000902F0E94E33587FD18C01091EF025091AB
:100E0000F0025E838091F1028D830091F202212F26
:100E1000352F482F502FB601C7010E94E33587FDBB
:100E200004C01C2DDE82ED820F2D612F7E818D810D
:100E3000902F0E943A387A836983161617060CF0B1
:100E400053C1072E000C880B990B0E94EA3520E055
:100E500030E040E950E40E9449360E9441387093E6
:100E60008900609388008BB1877E29813A811216B0
:100E700013060CF044C188608BB90E940F050091E5
:100E80001A0210911B0220911C0230911D020617BC
:100E900017072807390708F0D4C00E940F05609390
:100EA0001A0270931B0280931C0290931D020E94F1
:100EB0000F05C0901602D0901702E0901802F09033
:100EC00019020E94E8354B015C0120E030E04AE75E
:100ED00054E4C701B6010E9449369B01AC01C5012B
:100EE000B4010E94E33587FF25C10E940F050E94CF
:100EF000E83520E030E04AE754E40E94C83720910A
:100F000012023091130240911402509115020E9476
:100F10005B376B017C0180900D0290900E02A090D7
:100F20000F02B0901002809111028111EFC020E0F9
:100F300030E84BE355E4C701B6010E944936A701EA
:100F400096010E9449366B017C0120E030E0A90146
:100F5000C501B4010E945C379B01AC01C701B60119
:100F60000E945C370E943A3860932A0270932B02E9
:100F700080932C0290932D020E940F05C090F101E6
:100F8000D090F201E090F301F090F4010E94E83576
:100F90004B015C0120E030E04AE754E4C701B601B0
:100FA0000E9449369B01AC01C501B4010E94E335A2
:100FB00087FF9DC10E940F050E94E83520E030E0C8
:100FC0004AE754E40E94C8372091ED013091EE01C8
:100FD0004091EF015091F0010E945B376B017C0161
:100FE0008090E8019090E901A090EA01B090EB01B7
:100FF0008091EC01811167C120E030E84BE355E4BA
:10100000C701B6010E944936A70196010E944936E0
:101010006B017C0120E030E0A901C501B4010E9410
:101020005C379B01AC01C701B6010E945C370E948E
:101030003A3860931E0270931F02809320029093AF
:10104000210226960FB6F894DEBF0FBECDBFDF910A
:10105000CF911F910F91FF90EF90DF90CF90BF90B5
:10106000AF909F908F907F906F905F904F9008957A
:1010700040900B0350900C0360900D0370900E0392
:10108000A3019201C501B4010E94E33587FF9ACD07
:10109000A7019601C301B2018BCD49815A81452B2D
:1010A00021F0719561957109C5CD70E060E0D0CDFA
:1010B00049815A81452B09F4D8CD8460D6CD409022
:1010C000EF025090F0026090F1027090F202A301E2
:1010D0009201C501B4010E94E33587FF7ACEA701D2
:1010E0009601C301B2016BCE49815A81452B21F093
:1010F000719561957109A5CE70E060E0B0CE49812F
:101100005A81452B09F4B8CE8061B6CE20E030E09C
:10111000A901C501B4010E945C374B015C0120E0CC
:1011200030E84BE355E4C701B6010E944936A701F8
:10113000960157C00E940F058090090290900A0204
:10114000A0900B02B0900C020E94E8352B013C01EC
:1011500020E030E04AE754E4C501B4010E9449367A
:101160009B01AC01C301B2010E94E33587FF42C07D
:101170008090010290900202A0900302B0900402BD
:10118000409005025090060260900702709008029D
:1011900080911102811115C00E940F050E94E8354F
:1011A00020E030E04AE754E40E94C837A7019601E6
:1011B0000E945B37A30192010E944936A501940168
:1011C000CFCE0E940F050E94E83520E030E04AE7CC
:1011D00054E40E94C837A70196010E945B37A3011F
:1011E00092010E9449369B01AC01C501B4010E94E5
:1011F0005B37B8CE0E940F050E94E8356B017C0179
:1012000020E030E04AE754E46091FD017091FE0176
:101210008091FF01909100020E9449369B01AC0130
:10122000C701B6010E94E33587FF44C00E940F0545
:101230000E94E83520E030E04AE754E40E94C837D5
:10124000A50194010E945B376B017C018090F9013C
:101250009090FA01A090FB01B090FC012091050252
:1012600030910602409107025091080280911102CC
:10127000811107C0C701B6010E944936A50194013A
:101280004ACFC701B6010E9449362B013C0120E03C
:1012900030E84BE355E4C701B6010E944936A70187
:1012A00096010E9449369B01AC01C301B2010E9424
:1012B0005B3799CF6091F5017091F6018091F7014C
:1012C0009091F8014FCE20E030E0A901C501B401B2
:1012D0000E945C374B015C0120E030E84BE355E4B1
:1012E000C701B6010E944936A701960157C00E9466
:1012F0000F058090E4019090E501A090E601B09088
:10130000E7010E94E8352B013C0120E030E04AE78C
:1013100054E4C501B4010E9449369B01AC01C301EC
:10132000B2010E94E33587FF42C08090DC019090BB
:10133000DD01A090DE01B090DF014090E00150900F
:10134000E1016090E2017090E3018091EC01811174
:1013500015C00E940F050E94E83520E030E04AE702
:1013600054E40E94C837A70196010E945B37A3018D
:1013700092010E944936A501940157CE0E940F05A3
:101380000E94E83520E030E04AE754E40E94C83784
:10139000A70196010E945B37A30192010E94493682
:1013A0009B01AC01C501B4010E945B3740CE0E9495
:1013B0000F050E94E8356B017C0120E030E04AE730
:1013C00054E46091D8017091D9018091DA01909133
:1013D000DB010E9449369B01AC01C701B6010E94A6
:1013E000E33587FF43C00E940F050E94E83520E0E7
:1013F00030E04AE754E40E94C837A50194010E94F6
:101400005B376B017C018090D4019090D501A09056
:10141000D601B090D7016091E0017091E101809117
:10142000E2019091E3012091EC01A701211106C096
:1014300096010E944936A50194014ACF96010E9467
:1014400049362B013C0120E030E84BE355E4C7016D
:10145000B6010E944936A70196010E9449369B01B8
:10146000AC01C301B2010E945B379ACF6091D001F9
:101470007091D1018091D2019091D301D8CD0F9379
:101480001F930E940F0560933E0270933F0280936A
:1014900040029093410286E392E00E94950397FFF9
:1014A0001DC00E940F0500913E0210913F02209145
:1014B000400230914102601B710B820B930B009133
:1014C0003A0210913B0220913C0230913D0260179C
:1014D000710782079307F8F28FEF9FEF1F910F912B
:1014E000089590915F0120910C01920F8F3F39F088
:1014F000813039F490915F0120910C01921B9093FF
:101500005F01611104C0EBE3F6E03197F1F7682F5A
:10151000880F770B880B990B0E94EA352091080100
:101520003091090140910A0150910B010E94493606
:101530002091CC013091CD014091CE015091CF014D
:101540000E945C376093CC017093CD018093CE01F3
:101550009093CF0181E00895CF92DF92EF92FF92B6
:101560000F931F93CF93DF93EC0100E011E06091A4
:101570000C0170910D01072E000C880B990B0E9435
:10158000EA359B01AC01F801608571858285938500
:101590000E94C8376B017C01BE010D2E000C880B28
:1015A000990B0E94EA359B01AC01C701B6010E946C
:1015B0004936F8016087718782879387D0930D0140
:1015C000C0930C01DF91CF911F910F91FF90EF908D
:1015D000DF90CF900895FC0101900020E9F731974A
:1015E000AF01481B590BBC0186E392E00C945003F9
:1015F0008F929F92AF92BF920F931F93CF93DF93DF
:10160000CDB7DEB7A1970FB6F894DEBF0FBECDBF42
:1016100019A2423008F44AE08E010F5D1F4F842E5C
:10162000912CB12CA12CA50194010E94E938E62F40
:10163000B901CA01EA30F4F4E05DD801EE938D01FE
:10164000232B242B252B79F790E080E0109719F0BD
:10165000CD010E94EB0AA1960FB6F894DEBF0FBE33
:10166000CDBFDF91CF911F910F91BF90AF909F9011
:101670008F900895E95CE1CF4F925F926F927F92D5
:101680008F929F92AF92BF92CF92DF92EF92FF9292
:101690000F931F93CF936B017C01742EAC019B01C0
:1016A0000E94BB38882399F082E391E0CF911F918B
:1016B0000F91FF90EF90DF90CF90BF90AF909F90F1
:1016C0008F907F906F905F904F900C94EB0A460143
:1016D0005701E894B7F82FEF3FEF4FE75FE7C501F9
:1016E000B4010E94BB3881110DC02FEF3FEF4FE7CF
:1016F0005FE7C501B4010E94E33518161CF486E3C8
:1017000091E0D4CF2FEF3FEF4FE75FE4C701B60181
:101710000E94703818161CF48AE391E0C7CF2FEFAF
:101720003FEF4FE75FECC701B6010E94E33587FD4D
:10173000F3CF20E030E0A901C701B6010E94E335F4
:1017400010E000E087FF0AC06DE286E392E00E94AD
:10175000F9038C01F7FAF094F7F8F094C0E060E038
:1017600070E080E09FE37C1641F020E030E040E252
:1017700051E40E94C837CF5FF6CFA70196010E94BF
:101780005C372B013C010E9441384B015C014AE06F
:101790000E94F80A7C01E00EF11ECC23C1F1C501C4
:1017A000B4010E94E8359B01AC01C301B2010E9463
:1017B0005B374B015C016EE286E392E00E94F90325
:1017C000E80EF91EC15018F120E030E040E251E48B
:1017D000C501B4010E9449362B013C010E944138E9
:1017E0004B01B12CA12C4AE0C501B4010E94F80ABA
:1017F000E80EF91EC501B4010E94E8359B01AC0159
:10180000C301B2010E945B374B015C01DBCFC70112
:10181000CF911F910F91FF90EF90DF90CF90BF90ED
:10182000AF909F908F907F906F905F904F900895B2
:10183000CF92DF92EF92FF9285EC91E00E944B04F1
:1018400082EC91E00E944B046091C4017091C5014B
:101850008091C6019091C70141E00E943C0B8EEB44
:1018600091E00E944B046091C8017091C901809180
:10187000CA019091CB0141E00E943C0B8AEB91E0C0
:101880000E944B046091CC017091CD018091CE01FA
:101890009091CF0141E00E943C0B8FEA91E00E94C1
:1018A0004B04C090AE01D090AF01E090B001F09039
:1018B000B10120E030E048EC52E4C701B6010E94DB
:1018C0007038181634F4C12CD12C88ECE82E82E440
:1018D000F82E42E0C701B6010E943C0B84EA91E079
:1018E0000E944B0489ED92E00E947D038DE991E016
:1018F0000E944B0483ED92E00E947D038EE391E011
:10190000FF90EF90DF90CF900C94EB0ACF93DF9392
:101910000E94EB0AEC018EE391E00E94EB0A8C0F2F
:101920009D1FDF91CF910895CF93DF930E944B04C9
:10193000EC018EE391E00E94EB0A8C0F9D1FDF917A
:10194000CF910895FC0180819181009711F00C9452
:10195000EB3160E070E0CB010895FC018081918162
:10196000009711F00C94EF3160E070E0CB01089526
:10197000CF93DF93DC0114962D913C911597232B87
:1019800079F0FB01CD91DC9160817181CE010E94E3
:101990004D3B009729F08C1B9D0BDF91CF91089553
:1019A0008FEF9FEFFACFFB0144815581FC01248129
:1019B00035812417350778F080819181009759F09F
:1019C000FB01608171816115710529F00E943F3B27
:1019D00021E0892B09F020E0822F0895FC01248169
:1019E0003581FB014481558124173507E1F4FC0161
:1019F00080819181FB01608171810097D1F0611537
:101A00007105A1F4232BC1F0FC01808190E008C096
:101A1000232B91F0FB01808190E0919581959109B4
:101A200021E0892B09F020E0822F08950E942F3BAE
:101A3000F7CF6115710561F721E0F6CF0F931F9382
:101A4000CF93DF938C01EB01FC01808191810097A2
:101A5000E1F06881798161157105A9F042815381B6
:101A60002C813D814217530770F00E94383B8C81D6
:101A70009D81F801958384831D821C82DF91CF9123
:101A80001F910F9108950E94E03988819981F80192
:101A9000918380838A819B81938382838C819D81C2
:101AA00095838483198218821B821A82E5CFCF9393
:101AB000DF93EC0188819981009711F00E94E03951
:101AC000198218821D821C821B821A82DF91CF919B
:101AD0000895FC0180819181009711F00C94E03908
:101AE00008950F931F93CF93DF93EC018881998121
:101AF000009759F02A813B812617370730F081E0A3
:101B0000DF91CF911F910F9108958B016F5F7F4FF0
:101B10000E94693A009759F0998388831B830A834E
:101B20002C813D81232B59F7FC011082E8CF80E006
:101B3000E7CFEF92FF920F931F93CF93DF93EC01C8
:101B4000FB01E080F180E114F10411F104811581C1
:101B500001151105A9F08C819D81080F191FB8018D
:101B6000CE010E94710D882399F0288139818C81E2
:101B70009D81B701820F931F0E94383B1D830C8308
:101B8000CE01DF91CF911F910F91FF90EF900895BB
:101B9000CE010E94570DF4CFEF92FF920F931F9347
:101BA000CF93DF93EC018B01CB010E941D327C01AE
:101BB000BC01CE010E94710D81110BC0CE010E94AB
:101BC000570DCE01DF91CF911F910F91FF90EF90B4
:101BD0000895FD82EC82B801888199810E941632B5
:101BE000F0CFFC01118210821382128215821482BE
:101BF0000C94CC0DEF92FF920F931F93CF93DF9332
:101C0000EC017B018A01BA010E94710D81110BC0A8
:101C1000CE010E94570DCE01DF91CF911F910F9100
:101C2000FF90EF9008951D830C83B70188819981FF
:101C30000E94383BF0CFCF93DF93EC01FB01861776
:101C4000970749F0608171816115710541F0448108
:101C500055810E94FA0DCE01DF91CF9108950E9427
:101C6000570DF9CFFC011182108213821282158266
:101C700014820C941B0ECF92DF92EF92FF920F937F
:101C80001F93CF93DF937C018B016A01D0E0C0E00A
:101C9000B601C8018C0F9D1F0E94EE0C882389F0AD
:101CA000EC96B8016C0F7D1FC7010E94320EC70170
:101CB000DF91CF911F910F91FF90EF90DF90CF9028
:101CC00008952696CC33D10519F7F1CFEF92FF9204
:101CD0000F931F93CF93DF93FC0130E020E0A481AA
:101CE000B581AB2B29F0A081B181AC91A1111AC0B3
:101CF0007A01EC0186E0829F8001839F100D112400
:101D0000CE01800F911F0E941B0EC801CC96B70117
:101D10008C0F9D1FDF91CF911F910F91FF90EF903E
:101D20000C941B0E2F5F3F4F36962A303105B9F6C3
:101D3000DF91CF911F910F91FF90EF900895FC01DB
:101D4000118210821382128215821482FB0101908B
:101D50000020E9F73197AF01461B570B0C94FA0DA1
:101D6000AF92BF92CF92DF92EF92FF920F931F93A9
:101D7000CF93DF937C016B015A018901241735074A
:101D800020F48B2D5901042F182F60E471E0C70156
:101D90000E949F0ED6011496CD91DC91AC16BD0623
:101DA00020F50C171D0708F4E801D601ED91FC9110
:101DB0001197EC0FFD1F108110826D917C916A0DBF
:101DC0007B1D61157105E9F0FB0101900020E9F729
:101DD0003197AF01461B570BC7010E94FA0DF60160
:101DE00080819181C80FD91F1883C701DF91CF91DE
:101DF0001F910F91FF90EF90DF90CF90BF90AF9029
:101E00000895C7010E94570DEACFDF92EF92FF922B
:101E10000F931F93CF93DF9300D000D000D0CDB7A6
:101E2000DEB77C018B016FEC71E0CE0101960E9460
:101E3000F10DBE016F5F7F4FC8010E94D30CD82EF9
:101E4000CE0101960E94690DDD20A9F0F8012481E0
:101E5000358141E050E0B801CE0101960E94B00EFC
:101E6000BE016F5F7F4FC8010E941E0DCE0101961B
:101E70000E94690DD8CF6DEC71E0CE0101960E94F1
:101E8000F10DF801248135814D815E8124173507DC
:101E900098F080819181009779F069817A8161154C
:101EA000710551F0241B350B820F931F0E942F3BAD
:101EB000DD24D394892B09F0D12CCE0101960E9408
:101EC000690DDD20B9F0F8012481358121503109F7
:101ED00050E040E0B801CE0101960E94B00EBE0174
:101EE0006F5F7F4FC8010E941E0DCE0101960E94B8
:101EF000690DC1CFF70111821082138212821582FF
:101F00001482B801C7010E941E0DC70126960FB6A4
:101F1000F894DEBF0FBECDBFDF91CF911F910F911F
:101F2000FF90EF90DF900895CF92DF92EF92FF92B3
:101F30000F931F93CF93DF93CDB7DEB72C970FB6D8
:101F4000F894DEBF0FBECDBF8C017B0163ED71E065
:101F5000CE0101960E94F10DBE016F5F7F4FC70158
:101F60000E94B80C6C01CE0101960E94690DD7FC4D
:101F700032C061ED71E0CE0101960E94F10DBE010B
:101F80006F5F7F4FC7010E94B80C9C0150E040E09A
:101F9000B701CE0107960E94B00EBE01695F7F4F68
:101FA000C8010E94050FCE0107960E94690DCE015F
:101FB00001960E94690DC8012C960FB6F894DEBFF9
:101FC0000FBECDBFDF91CF911F910F91FF90EF908A
:101FD000DF90CF900895F80111821082138212824F
:101FE00015821482B701C8010E941E0DE4CF4F92E2
:101FF0005F926F927F928F929F92AF92BF92CF9299
:10200000DF92EF92FF920F931F93CF93DF93CDB7A1
:10201000DEB762970FB6F894DEBF0FBECDBF8A8BD6
:1020200049875A876B877C8748015901E98A20E0F4
:1020300030E0A90169857A858B859C850E94E3350E
:10204000182F111F1127111F49845A846B847C8417
:1020500087FF04C077FA709477F8709420E030E836
:102060004BEB55E4C501B4010E9449366B017C017C
:1020700020E030E040E05FE30E94493620E030E0BD
:10208000A9010E945C376D837E838F83988720E04F
:1020900030E0A901C301B2010E94E335882309F4AD
:1020A000D7C320E030E04AE755E46D817E818F811F
:1020B00098850E94703818160CF00DC22BEA3AEA87
:1020C0004AE25FE3C501B4010E945B3769837A830A
:1020D0008B839C839B01AC01C501B4010E945B37DB
:1020E0006B017C012BEA3AEA4AE25FE369817A817B
:1020F0008B819C810E945B3720E030E04AE755E409
:102100000E9449362BEA3AEA46EA54E40E945C37D8
:1021100069837A838B839C8320E030E040E05FE337
:10212000C701B6010E94493620E030E04AE755E495
:102130000E9449369B01AC0169817A818B819C8127
:102140000E945C3769837A838B839C8320E030E034
:10215000A901C701B6010E9449369B01AC01698102
:102160007A818B819C810E945C376B017C01AC0180
:102170009B01C301B2010E94703818164CF52989E1
:10218000211184C5A7019601C301B2010E945B37EA
:1021900020E030E04AE755E40E94C8376B017C013B
:1021A00020E030E0A90169857A858B859C850E94B5
:1021B000E33587FF04C077FA709477F87094A7012D
:1021C0009601C501B4010E945C374B015C01A9C1B5
:1021D00020E030E84BE356E4C501B4010E944936E3
:1021E00020E030E0A9010E9449366B017C0120E427
:1021F00034E549E05CE4C501B4010E944936A5011B
:1022000094010E944936A70196010E945C37A701FC
:1022100096010E945C376B017C0120E030E040E8D1
:1022200050E4C301B2010E94493620E030E84BEB94
:1022300055E40E9449369B01AC01C701B6010E94DA
:102240005B3720E030E0A9010E945C370E947B38B8
:102250003989311101C320E030E040E05FE30E94A2
:1022600049369B01AC016D817E818F8198850E94EA
:102270005B3769837A838B839C8320E030E84BEB68
:1022800055E40E94C8376B017C0129813A814B815A
:102290005C8160E070E0CB010E945B3720E030E8B9
:1022A0004BEB55E40E94C837A50194010E945C37AE
:1022B0006D877E878F87988BA70196010E945B3779
:1022C0006D837E838F8398872D853E854F855889C2
:1022D000C501B4010E945B374B015C014A89411181
:1022E0003AC089819A81AB81BC8180930502909329
:1022F0000602A0930702B093080220E030E0A90193
:1023000069857A858B859C850E94E33587FF4BC361
:10231000209100013091010140910201509103018F
:10232000C301B2010E9449369B01AC016091C40116
:102330007091C5018091C6019091C7010E945B37E1
:10234000609368017093690180936A0190936B01B7
:1023500041E0498351C39A89913009F07DC22981B6
:102360003A814B815C812093E0013093E1014093FD
:10237000E2015093E3010E940F050E94E83520E03E
:1023800030E04AE754E40E94C8376093ED0170934F
:10239000EE018093EF019093F001A70196010E9456
:1023A0005C376093F1017093F2018093F301909395
:1023B000F4012D813E814F8158850E945C376093E6
:1023C000E4017093E5018093E6019093E701A50194
:1023D00094010E945C376093D8017093D901809377
:1023E000DA019093DB0160912202709123028091C7
:1023F0002402909125022091E0013091E101409169
:10240000E2015091E30129873A874B875C871111DC
:10241000F1C30E94EA354B015C018092E801909281
:10242000E901A092EA01B092EB0120E030E84BE331
:1024300055E4C701B6010E944936A70196010E94E2
:1024400049366B017C0120E030E0A901C501B401EF
:102450000E945C379B01AC01C701B6010E945C374A
:102460006B017C01C092DC01D092DD01E092DE01C3
:10247000F092DF0129853A854B855C856D817E81EF
:102480008F8198850E944936A70196010E945C378A
:102490006093D4017093D5018093D6019093D701B6
:1024A000A3019201C501B4010E945C376093D00181
:1024B0007093D1018093D2019093D3011093EC01DA
:1024C0000E94D20460932602709327028093280210
:1024D00090932902C1C1A501940160E070E0CB0195
:1024E0000E94C83720E030E84BEB55EC0E94E33502
:1024F00087FF1DC039893111C9C320E030E0A9012F
:1025000069857A858B859C850E94E33587FF04C0A9
:1025100077FA709477F87094812C912CA12C80E834
:10252000B82E198A49865A866B867C8680CD20E033
:1025300030E0A901C701B6010E945C3720E030E815
:102540004BE356E40E94C8376B017C01AC019B0150
:10255000C501B4010E945B3769837A838B839C83B6
:1025600020E030E040E05FE3C701B6010E94493659
:102570002D813E814F8158850E9449366D877E8727
:102580008F87988B20E030E0A901C701B6010E9437
:1025900049369B01AC016D857E858F8598890E94A7
:1025A0005C376B017C0120E030E040E05FE3698153
:1025B0007A818B819C810E9449362D813E814F8199
:1025C00058850E9449369B01AC01C701B6010E94A3
:1025D0005C376B017C0120E030E0A90169817A81E0
:1025E0008B819C810E9449369B01AC01C701B601D9
:1025F0000E945C376B017C01AC019B01C301B201FD
:102600000E94703818160CF07DC0498941113EC3F4
:102610002BEA3AEA46E255E4C301B2010E94E335EF
:1026200018160CF449C0A7019601C301B2010E941B
:102630005B3720E030E84BE356E40E9449366B01FB
:102640007C012D813E814F815885CA01B9010E94CC
:1026500049369B01AC01C701B6010E945C370E945C
:102660007B389B01AC016D817E818F8198850E94B2
:102670005B37905820E030E84BEB55E40E94C837B8
:102680006B017C0120E030E0A90169857A858B85AA
:102690009C850E94E33587FF04C077FA709477F831
:1026A000709426E636E646E85FE3C701B6010E946D
:1026B00049369B01AC0185CD2BEA3AEA46E255E466
:1026C000C301B2010E945B3720E030E04AE755E4E5
:1026D0000E94C8376B017C0120E030E0A9016985C8
:1026E0007A858B859C850E94E33587FF04C077FA45
:1026F000709477F870942BEA3AEA4AEA5FE3C701EC
:10270000B60161CD20E030E84BE356E4C501B401E9
:102710000E94493620E030E0A9010E9449366B0151
:102720007C0120E434E549E05CE4C501B4010E9489
:102730004936A50194010E944936A70196010E94DD
:102740005C37A70196010E945C376B017C0120E099
:1027500030E040E850E4C301B2010E94493620E075
:1027600030E84BEB55E40E9449369B01AC01C701B0
:10277000B6010E945B3720E030E0A9010E945C377F
:102780000E947B385989511167C020E030E040E059
:102790005FE30E9449369B01AC016D817E818F8190
:1027A00098850E945B3769837A838B839C8320E0C2
:1027B00030E84BEB55E40E94C8376B017C0129815E
:1027C0003A814B815C8160E070E0CB010E945B3715
:1027D00020E030E84BEB55E40E94C837A501940196
:1027E0000E945C376D877E878F87988BA701960143
:1027F0000E945B376D837E838F8398872D853E850E
:102800004F855889C501B4010E945B374B015C01BB
:102810008A8981110DC029813A814B815C81209385
:10282000050230930602409307025093080265CDDB
:102830003A89313089F489819A81AB81BC81809356
:10284000E0019093E101A093E201B093E30193CD05
:102850009989992309F41CC20E940F050E940F0553
:10286000615071098109910960931A0270931B02EA
:1028700080931C0290931D0281E062960FB6F8943B
:10288000DEBF0FBECDBFDF91CF911F910F91FF90A3
:10289000EF90DF90CF90BF90AF909F908F907F9000
:1028A0006F905F904F90089520E030E0A901698516
:1028B0007A858B859C850E94E33587FF6BC02091CC
:1028C0000001309101014091020150910301C301C7
:1028D000B2010E9449369B01AC016091C401709124
:1028E000C5018091C6019091C7010E945B3760933A
:1028F00068017093690180936A0190936B01C090A5
:102900002E02D0902F02E0903002F0903102C0925F
:102910002A02D0922B02E0922C02F0922D020E9409
:102920000F0561507109810991090E94E83520E085
:1029300030E04AE754E40E94C83760931202709373
:102940001302809314029093150260931602709301
:1029500017028093180290931902609309027093F2
:102960000A0280930B0290930C026093FD01709316
:10297000FE018093FF0190930002C701B6010E94FF
:10298000EA356093F5017093F6018093F701909317
:10299000F80162CF812C912C54018D829E82AF82EE
:1029A000B8867501640120910001309101014091C8
:1029B000020150910301C301B2010E9449362091E6
:1029C000C4013091C5014091C6015091C7010E94D8
:1029D0005C37609368017093690180936A019093FA
:1029E0006B0120E030E0A901C301B2010E94E33590
:1029F000882309F484CF19820E940F050E94E835CC
:102A000020E030E04AE754E40E94C83760931202A5
:102A1000709313028093140290931502A7019601FC
:102A20000E945C376093160270931702809318021D
:102A3000909319022D813E814F8158850E945C3709
:102A40006093090270930A0280930B0290930C0228
:102A5000A50194010E945C376093FD017093FE0113
:102A60008093FF019093000260912E0270912F02DB
:102A7000809130029091310220910502309106023E
:102A8000409107025091080229873A874B875C875B
:102A90003981311163C00E94EA354B015C0180929B
:102AA0000D0290920E02A0920F02B092100220E04E
:102AB00030E84BE355E4C701B6010E944936A7014F
:102AC00096010E9449366B017C0120E030E0A901AB
:102AD000C501B4010E945C379B01AC01C701B6017E
:102AE0000E945C376B017C01C0920102D09202020D
:102AF000E0920302F09204022D813E814F815885BD
:102B000069857A858B859C850E944936A701960147
:102B10000E945C376093F9017093FA018093FB0186
:102B20009093FC01A3019201C501B4010E945C379E
:102B30006093F5017093F6018093F7019093F8018B
:102B40004981409311020E94D20460933202709333
:102B5000330280933402909335027ECE0E94EA3590
:102B60004B015C0180920D0290920E02A0920F0226
:102B7000B092100220E030E84BE355E4C701B60103
:102B80000E944936A70196010E94493620E030E0B4
:102B9000A9010E945C379B01AC01C501B4010E94F0
:102BA0005B376B017C01C0920102D0920202E0927D
:102BB0000302F09204022D813E814F815885698580
:102BC0007A858B859C850E9449369B01AC01C701A3
:102BD000B6010E945B376093F9017093FA0180930C
:102BE000FB019093FC01A3019201C501B4010E9475
:102BF0005B379ECF0E94EA354B015C018092E80171
:102C00009092E901A092EA01B092EB0120E030E855
:102C10004BE355E4C701B6010E944936A70196016E
:102C20000E94493620E030E0A9010E945C379B01F8
:102C3000AC01C501B4010E945B376B017C01C092FD
:102C4000DC01D092DD01E092DE01F092DF01298506
:102C50003A854B855C856D817E818F8198850E9448
:102C600049369B01AC01C701B6010E945B376093F6
:102C7000D4017093D5018093D6019093D701A3011D
:102C80009201C501B4010E945B3710CC80E0F5CD04
:102C90003A89332309F408CEC0902202D09023024F
:102CA000E0902402F0902502C0921E02D0921F02F2
:102CB000E0922002F09221020E940F0561507109FA
:102CC000810991090E94E83520E030E04AE754E4A8
:102CD0000E94C8376093ED017093EE018093EF017D
:102CE0009093F0016093F1017093F2018093F301EE
:102CF0009093F4016093E4017093E5018093E60101
:102D00009093E7016093D8017093D9018093DA0121
:102D10009093DB01C701B6010E94EA356093D001B0
:102D20007093D1018093D2019093D30195CD2F92CE
:102D30003F924F925F926F927F928F929F92AF924B
:102D4000BF92CF92DF92EF92FF920F931F93CF9398
:102D5000DF93CDB7DEB7C75DD1090FB6F894DEBFFC
:102D60000FBECDBF0E940F050091B7011091B801B1
:102D70002091B9013091BA01601B710B820B930B4A
:102D8000633371058105910560F00E94180C0E9463
:102D90000F056093B7017093B8018093B9019093C8
:102DA000BA010E941B058091B601882309F4A3C0D3
:102DB0008091B50181119FC081E08093B501209180
:102DC000B3013091B4012630310579F51092B60186
:102DD0001092B5011092B2011092B4011092B30199
:102DE00080E090E0AAE7B4EC8093AE019093AF014D
:102DF000A093B001B093B10160E08DE00E94860421
:102E000068EA75E089ED92E00E94CC0D63EA75E016
:102E100083ED92E00E94CC0D61E08DE00E9486047B
:102E200081E491E00E94860C66C09091B2019923E2
:102E300009F4F6C08093B2016CE975E089ED92E087
:102E40000E94CC0D67E975E083ED92E00E94CC0D05
:102E500061E08DE00E9486040E94180C8091B3010D
:102E60009091B40104970CF046C084E090E09093F8
:102E7000B4018093B3012091AA013091AB0140913C
:102E8000AC015091AD016091C4017091C501809178
:102E9000C6019091C7010E945B376B017C012B0139
:102EA0003C0177FA709477F8709420E030E0A90143
:102EB0000E94703820E030E040E450E418160CF036
:102EC000ACC0C701B6010E94C8374B015C0120911C
:102ED0000001309101014091020150910301C301B1
:102EE000B2010E94C837AB01BC01E12C95018401FD
:102EF00080E00E94F70F8091B201813009F091C308
:102F00000091B3011091B401C8010497029708F031
:102F10008EC12AE939E949E95EE30430110509F077
:102F2000D0C06091C4017091C5018091C60190919B
:102F3000C7010E945B372091AA013091AB014091FB
:102F4000AC015091AD010E94E33518160CF48CC011
:102F500085E090E09093B4018093B3012091A601A5
:102F60003091A7014091A8015091A9016091C80139
:102F70007091C9018091CA019091CB010E945B3789
:102F80006B017C012B013C0177FA709477F8709407
:102F900020E030E0A9010E94703820E030E040E4F9
:102FA00050E418160CF05DC0C701B6010E94C83786
:102FB0004B015C0120910401309105014091060113
:102FC00050910701C301B2010E94C837AB01BC0197
:102FD000E12C9501840181E00E94F70F8091B601F8
:102FE000882309F4DBC2C952DF4F0FB6F894DEBF65
:102FF0000FBECDBFDF91CF911F910F91FF90EF904A
:10300000DF90CF90BF90AF909F908F907F906F9008
:103010005F904F903F902F900895C301B20153CF1E
:103020001092B6011092B5011092B4011092B30142
:1030300080E090E0AAE7B4EC8093AE019093AF01FA
:10304000A093B001B093B10161E08DE00E948604CD
:1030500062E975E089ED92E00E94CC0D6DE875E0C3
:10306000D7CEC301B201A2CF0E940F050091A201E9
:103070001091A3012091A4013091A501601B710B57
:10308000820B930B6F3171058105910508F4A6CF72
:1030900066E875E089ED92E00E94CC0D6FE775E07F
:1030A00083ED92E00E94CC0D0E94180C0E940F0547
:1030B0006093A2017093A3018093A4019093A50152
:1030C0008DCF6091C8017091C9018091CA01909122
:1030D000CB010E945B372091A6013091A70140915E
:1030E000A8015091A9010E94E33518160CF482C082
:1030F0001092A1011092A0011092B4011092B3019C
:103100008091B601882349F16AE775E089ED92E084
:103110000E94CC0D65E775E083ED92E00E94CC0D36
:1031200061E08DE00E94860480E090E0AAE7B4ECC4
:103130008093AE019093AF01A093B001B093B10121
:103140001092B5011092B6011092B2010E94180CB3
:1031500081E491E00E94860C41CFC0909C01D09008
:103160009D01E0909E01F0909F0120919801309187
:10317000990140919A0150919B01C701B6010E94AB
:10318000C8374B015C012091AA013091AB014091FD
:10319000AC015091AD01C701B6010E945C3720918E
:1031A000C4013091C5014091C6015091C7010E94F0
:1031B0005B37209100013091010140910201509153
:1031C00003010E94C837AB01BC01E12C95018401C9
:1031D00080E00E94F70F6EE675E089ED92E00E94B4
:1031E000CC0D67E675E083ED92E00E94CC0D0E9465
:1031F000180CF4CE0E940F050091A2011091A301BA
:103200002091A4013091A501601B710B820B930BDF
:103210006F3171058105910508F4E0CE60E675E037
:1032200089ED92E00E94CC0D69E575E039CF0E94EE
:103230000F05C0909401D0909501E0909601F09018
:1032400097016C197D098E099F090E94E8356B0171
:103250007C01209190013091910140919201509117
:103260009301609108017091090180910A01909188
:103270000B010E94C8379B01AC01C701B6010E9437
:10328000703818160CF098C00E940F0560939401D6
:1032900070939501809396019093970161E08FEF71
:1032A0000E94710A0E940F05C090A201D090A30154
:1032B000E090A401F090A5016C197D098E099F0989
:1032C000633371058105910508F476C061E575E009
:1032D0000630110514F06CE475E089ED92E00E946F
:1032E000CC0D64E475E083ED92E00E94CC0D60E0CB
:1032F0008DE00E9486048091B3019091B4010697FD
:1033000009F050C080908C0190908D01A0908E01AA
:10331000B0908F01A50194016091CC017091CD0115
:103320008091CE019091CF010E945B376B017C01AF
:1033300020E030E0A9010E947038181624F0F7FA56
:10334000F094F7F8F094A5019401609188017091D0
:10335000890180918A0190918B010E945B374B011A
:103360005C0120E030E0A9010E947038181624F0BA
:10337000B7FAB094B7F8B094A5019401C701B601AB
:103380000E94C83720E030E048EC52E40E94493601
:103390006093AE017093AF018093B0019093B1013F
:1033A0000E94180C0E940F056093A2017093A30164
:1033B0008093A4019093A5018091B3019091B401F1
:1033C000009709F01EC24090C4015090C501609062
:1033D000C6017090C701C090AA01D090AB01E090E7
:1033E000AC01F090AD0180919C0190919D01A09164
:1033F0009E01B0919F01C453DF4F88839983AA83B4
:10340000BB83CC5CD0402AE939E949E95EE3C301DA
:10341000B2010E945C374B015C01C453DF4F28812D
:1034200039814A815B81CC5CD040C701B6010E94E2
:103430005C379B01AC01C501B4010E9470381816BD
:103440000CF0C4C18090840190908501A090860109
:10345000B09087012AE939E949E95EE36091C80142
:103460007091C9018091CA019091CB010E945C3793
:10347000A50194010E945C37C053DF4F68837983B4
:103480008A839B83C05DD04020918001309181016F
:1034900040918201509183016091A6017091A70132
:1034A0008091A8019091A9010E945C372DEC3CEC21
:1034B0004CEC5DE30E945C379B01AC01C053DF4FD5
:1034C000688179818A819B81C05DD0400E9470387B
:1034D00018160CF031C184E090E09093B401809311
:1034E000B30180917E0190917F01019690937F01BD
:1034F00080937E01A3019201C701B6010E945B3750
:103500006B017C0120E030E0A9010E94703820E0CE
:1035100030E040E450E418160CF00AC1C701B601CF
:103520000E94C8374B015C012091000130910101DC
:103530004091020150910301C701B6010E94C837B2
:10354000AB01BC01E12C9501840180E00E94F70FE2
:103550008091B3019091B401049704F52091720118
:103560003091730140917401509175016091760121
:103570007091770180917801909179010E94C8370C
:1035800020E030E048EC52E40E9449366093AE01FE
:103590007093AF018093B0019093B10120917E01AF
:1035A00030917F0180917001909171012817390746
:1035B0003CF08091B601811103C081E08093B60197
:1035C0000E940F0500916C0110916D0120916E0118
:1035D00030916F01061717072807390738F48091D3
:1035E000B601811103C081E08093B601209188016A
:1035F0003091890140918A0150918B016091CC01F9
:103600007091CD018091CE019091CF010E94E33560
:1036100087FF07C08091B601811103C081E08093CC
:10362000B60186E392E00E94B703892B09F4DBCC54
:10363000DE0111961D01FE01FD96C653DF4FF98391
:10364000E883CA5CD0408D0160E471E0C8010E944B
:103650009F0E0A5F1F4FC653DF4F88819981CA5C56
:10366000D0408017910781F78E01035C1F4F7101D5
:1036700098E7E90EF11C60E471E0C8010E949F0E1A
:103680000A5F1F4FE016F106B1F786E392E00E9451
:1036900095037C018D3F910509F01FC30E94F7043B
:1036A00086E392E00E949503CA9741F58AEA90E08A
:1036B0000E9446048FEF90E00E9446048DEF90E058
:1036C0000E9446048AE390E00E94460469E375E0A4
:1036D000CE0187589F4F0E94F10DEE966FADEE9789
:1036E00086E392E00E94F903CE0187589F4F0E9423
:1036F0007D03CE0187589F4F0E94690D8E010758A8
:103700001F4F06501109C8010E94690DC653DF4FB3
:10371000E881F981CA5CD0400E171F0791F7065067
:103720001109C8010E94690D20163106C1F75BCC52
:10373000C701B6019058F4CEC453DF4F28813981B8
:103740004A815B81CC5CD04060917A0170917B01B1
:1037500080917C0190917D010E945C3760937A0199
:1037600070937B0180937C0190937D018091A001F7
:103770009091A10101969093A1018093A00181E015
:1037800090E09093B4018093B3012091980130911F
:10379000990140919A0150919B01C501B4010E9489
:1037A000C8372B013C012091040130910501409163
:1037B000060150910701C501B4010E94C837AB0151
:1037C000BC01E12C9301820181E0C0CEA7019601EA
:1037D000C301B2010E945B379B01AC0160917A0189
:1037E00070917B0180917C0190917D010E945C37FA
:1037F00060937601709377018093780190937901BB
:10380000A7CE8130910509F0A3C04090C801509027
:10381000C9016090CA017090CB010091A001109184
:10382000A101C0908401D0908501E0908601F090C4
:1038300087018091A6019091A701A091A801B09164
:10384000A901C453DF4F88839983AA83BB83CC5CCF
:10385000D04080907A0190907B01A0907C01B09044
:103860007D012AE939E949E95EE3C301B2010E9419
:103870005C37C053DF4F688379838A839B83C05D45
:10388000D040B801012E000C880B990B0E94EA353C
:10389000A70196010E944936C453DF4F2881398120
:1038A0004A815B81CC5CD0400E945C379B01AC01BB
:1038B000C053DF4F688179818A819B81C05DD04090
:1038C0000E94703818160CF0E4C1A5019401C701DC
:1038D000B6010E945C3760937A0170937B018093FC
:1038E0007C0190937D0182E090E09093B4018093FD
:1038F000B301209198013091990140919A01509122
:103900009B0160919C0170919D0180919E0190911D
:103910009F010E94C8374B015C012091C401309186
:10392000C5014091C6015091C7016091AA017091F3
:10393000AB018091AC019091AD010E945B37209169
:103940000001309101014091020150910301F6CD37
:103950008230910509F0FEC0C090C401D090C5012D
:10396000E090C601F090C7018090AA019090AB0151
:10397000A090AC01B090AD012AE939E949E95EE3D4
:10398000C701B6010E945B37A50194010E94E3358F
:1039900087FFC5C08091C8019091C901A091CA015B
:1039A000B091CB01C453DF4F88839983AA83BB8333
:1039B000CC5CD040C0908401D0908501E09086011D
:1039C000F09087014090A6015090A7016090A80157
:1039D0007090A9018090040190900501A0900601CB
:1039E000B0900701A7019601BC01CD010E945C3790
:1039F0002AE939E949E95EE30E945C37C053DF4FA9
:103A0000688379838A839B83C05DD0402091800145
:103A1000309181014091820150918301C301B20133
:103A20000E945C372DEC3CEC4CEC5DE30E945C3773
:103A30009B01AC01C053DF4F688179818A819B81F2
:103A4000C05DD0400E9470381816BCF585E090E04B
:103A50009093B4018093B30180917E0190917F0196
:103A6000019690937F0180937E01C453DF4F28819C
:103A700039814A815B81CC5CD040C301B2010E9494
:103A80005B376B017C0120E030E0A9010E947038B7
:103A900020E030E040E450E418161CF4C701B60101
:103AA00003C0C701B60190580E94C8372B013C01E2
:103AB000A5019401C701B60180CE20919C013091EF
:103AC0009D0140919E0150919F0160917A017091FA
:103AD0007B0180917C0190917D010E945C37609315
:103AE0007A0170937B0180937C0190937D0180919A
:103AF000A0019091A10101969093A1018093A00152
:103B000083E090E09093B4018093B30120919801F9
:103B10003091990140919A0150919B01BFCFA5012D
:103B20009401C701B6010E945B379B01AC01609113
:103B30009C0170919D0180919E0190919F010E9436
:103B40005B3720917A0130917B0140917C0150914B
:103B50007D014CCE039709F0FBCC4090C8015090FA
:103B6000C9016090CA017090CB010091A001109131
:103B7000A101C0908401D0908501E0908601F09071
:103B800087018091A6019091A701A091A801B09111
:103B9000A901C453DF4F88839983AA83BB83CC5C7C
:103BA000D04080907A0190907B01A0907C01B090F1
:103BB0007D012AE939E949E95EE3C301B2010E94C6
:103BC0005C37C053DF4F688379838A839B83C05DF2
:103BD000D040B801012E000C880B990B0E94EA35E9
:103BE000A70196010E944936C453DF4F28813981CD
:103BF0004A815B81CC5CD0400E945C379B01AC0168
:103C0000C053DF4F688179818A819B81C05DD0403C
:103C10000E9470381816ECF5A5019401C701B60191
:103C20000E945C3760937A0170937B0180937C01E2
:103C300090937D011092B4011092B301C0909C0149
:103C4000D0909D01E0909E01F0909F0120919801FD
:103C50003091990140919A0150919B01C701B601A1
:103C60000E94C8374B015C012091AA013091AB0141
:103C70004091AC015091AD01C701B6010E945C3783
:103C80002091C4013091C5014091C6015091C701F6
:103C900054CEC453DF4F288139814A815B81CC5C8B
:103CA000D040C301B2010E945B372B013C01B80137
:103CB00061507109072E000C880B990B0E94EA35A0
:103CC000A70196010E9449369B01AC01C301B201D4
:103CD0000E945B37A501940189CD60E471E0CE01BB
:103CE00080569F4F0E949F0E0E943F0A97FD33C04F
:103CF0008A30910581F1EA968FAFEA97EB961FAE75
:103D0000EB97CC55DF4F08811981C45AD0400F5F23
:103D10001F4FB801CE0180569F4F0E94710D88231E
:103D200019F3C056DF4F28813981C05AD040CC5595
:103D3000DF4F88819981C45AD040BE0167587F4FB8
:103D4000820F931F0E94383BCC55DF4F19830883A5
:103D5000C45AD040C9CFEB961FAE1EAEEB97ED967E
:103D60001FAE1EAEED97EF961FAE1EAEEF978E0103
:103D700006561F4FF801E082118201900020E9F7FA
:103D80003197AF01401B510BB801CE0187589F4FAF
:103D90000E94FA0DBE0167587F4FC8010E94320E83
:103DA000BE0160567F4FC8010E94990DBC01CE0133
:103DB0008C539F4F0E94320EC8010E94690DCE01A4
:103DC00087589F4F0E94690DCE0180569F4F0E94D9
:103DD000690DBE016C537F4FCE0182549F4F0E94EC
:103DE000320E60E471E0CE0188549F4F0E949F0E16
:103DF00060E471E0CE018E549F4F0E949F0E6FEDE4
:103E000071E0CE0187589F4F0E94F10DBE016758A7
:103E10007F4FCE0182549F4F0E94B80C7C01CE018F
:103E200087589F4F0E94690DBE0162547F4FF7FE75
:103E3000C0C0CE018E549F4F0E941B0E6EED71E0EC
:103E4000CE0188549F4F0E94CC0DBE0168547F4F15
:103E5000C8010E94320EB801CE0187589F4F0E94C0
:103E6000050FEF96EEACFFACEF97CE0187589F4F52
:103E70000E94690DC8010E94690DEF2809F460C114
:103E8000BE0168547F4FCE0184559F4F0E94320E71
:103E90006CED71E0CE0187589F4F0E94F10DBE017D
:103EA00067587F4FCE0188549F4F0E94B80C7C0109
:103EB000CE0187589F4F0E94690DF7FCB7C06AED8D
:103EC00071E0C8010E94F10DB801CE0188549F4FE6
:103ED0000E94B80C9C0150E040E0BE0168547F4F46
:103EE000CE0187589F4F0E94B00EBE0167587F4F8A
:103EF000CE0184559F4F0E941E0DCE0187589F4FC3
:103F00000E94690DC8010E94690D68ED71E0CE0143
:103F100080569F4F0E94F10DBE0160567F4FCE012B
:103F200088549F4F0E94B80CC454DF4F28813981B8
:103F3000CC5BD040AC014F5F5F4FBE0168547F4FF8
:103F4000C8010E94B00EB801CE0187589F4F0E9451
:103F5000050FBE0167587F4FCE0188549F4F0E94C6
:103F60001E0DCE0187589F4F0E94690DC8010E9407
:103F7000690DCE0180569F4F0E94690D65ED71E07D
:103F8000CE0187589F4F0E94F10DBE0167587F4FA9
:103F9000CE0184559F4F0E94B80C7C01CE018758FA
:103FA0009F4F0E94690DF7FE51C0CE0184559F4F6F
:103FB0003AC0C8010E94320EB801CE0187589F4F07
:103FC0000E94940FBE0167587F4FCE018E549F4FC1
:103FD0000E941E0DCE0187589F4F0E94690DC80197
:103FE0000E94690DCE53DF4F28813981C25CD040D9
:103FF000CA54DF4F48815981C65BD0404F5F5F4F45
:10400000BE0162547F4FCE0187589F4F0E94B00E71
:10401000BE0167587F4FCE0188549F4F0E941E0DEE
:10402000CE0187589F4F0E94690D0FCFBE01685483
:104030007F4FCE0184559F4F0E941B0E67ED71E0AC
:10404000CE0188549F4F0E94CC0D98CF6AE471E056
:10405000C8010E949F0EB801CE0184559F4F0E9457
:10406000B80C9C0150E040E0BE0164557F4FCE018A
:1040700087589F4F0E94B00EBE0167587F4FCE01F8
:104080008A559F4F0E94050FCE0187589F4F0E946F
:10409000690DC8010E94690D6AE471E0C8010E94BF
:1040A0009F0EB801CE0184559F4F0E94B80CC05599
:1040B000DF4F28813981C05BD040AC014F5F5F4F3B
:1040C000BE0164557F4FCE0187589F4F0E94B00EAE
:1040D000BE0167587F4FCE0180569F4F0E94050F4B
:1040E000CE0187589F4F0E94690DC8010E94690D3B
:1040F000BE0160567F4FCE0187589F4F0E94320EFF
:10410000BE016A557F4FC8010E94320EAE0147586A
:104110005F4FB801C1010E94660EC8010E94690D7F
:10412000CE0187589F4F0E94690DCE0180569F4F48
:104130000E94690DCE018A559F4F0E94690D35CFAF
:10414000CE018E549F4F0E94690DCE0188549F4F1F
:104150000E94690DCE0182549F4F0E94690DBE01DD
:104160006C537F4FCE0187589F4F0E94320EBE0185
:1041700067587F4FC8010E94940FB801CE018C533D
:104180009F4F0E941E0DC8010E94690DCE018758E5
:104190009F4F0E94690D63E375E0CE0187589F4FE2
:1041A0000E94F10DBE0167587F4FCE018C539F4F87
:1041B0000E94EE0CF82ECE0187589F4F0E94690D89
:1041C000FF2029F181E08093B60186E195E00E940D
:1041D000940CCE018C539F4F0E94690D8E0107589D
:1041E0001F4F7E01ADE3EA0EF11C06501109C80114
:1041F0000E94690D0E151F05C1F706501109C8016F
:104200000E94690D20163106C1F70C94F3176BE07C
:1042100075E0CE0187589F4F0E94F10DBE0167588F
:104220007F4FCE018C539F4F0E94EE0CF82ECE0193
:1042300087589F4F0E94690DFF20C9F18091680146
:1042400090916901A0916A01B0916B018093640122
:1042500090936501A0936601B0936701109260018D
:10426000109261011092620110926301E12C00E052
:1042700010E09801B901A80180E00E94F70F00E06A
:1042800010E09801B901A80181E00E94F70F64E0F5
:1042900075E083ED92E00E94CC0D6DEF74E089ED46
:1042A00092E00E94CC0D8FEF8093B20192CF61EF2C
:1042B00074E0CE0187589F4F0E94F10DBE016758F0
:1042C0007F4FCE018C539F4F0E94EE0CF82ECE01F3
:1042D00087589F4F0E94690DFF2009F4A2C00E94D9
:1042E0000F056093940170939501809396019093CC
:1042F000970181E08093B2018091B3019091B40164
:104300009C012D7F2115310521F08430910509F0A4
:1043100042C02091C4013091C5014091C601509125
:10432000C70160916401709165018091660190916F
:1043300067010E945B376B017C0120E030E0A9013E
:104340000E947038181624F1C701B60190582091C8
:1043500098013091990140919A0150919B010E94DE
:10436000C8374B015C01209100013091010140915F
:10437000020150910301C701B6010E94C837AB0189
:10438000BC01E12C9501840180E00E94F70F21CF50
:10439000C701B601DCCF2130310519F0059709F0CE
:1043A00018CF2091C8013091C9014091CA015091A4
:1043B000CB016091600170916101809162019091E7
:1043C00063010E945B376B017C0120E030E0A901B2
:1043D0000E947038181614F1C701B6019058209148
:1043E00098013091990140919A0150919B010E944E
:1043F000C8374B015C0120910401309105014091C7
:10440000060150910701C701B6010E94C837AB01F0
:10441000BC01E12C9501840181E0B7CFC701B60151
:10442000DECF68EE74E0CE0187589F4F0E94F10DF9
:10443000BE0167587F4FCE018C539F4F0E94EE0CF8
:10444000F82ECE0187589F4F0E94690DFF2009F476
:10445000FCC31092B5018FED94E00E94940C0E9471
:10446000F7041092B2016AED74E0CE0187589F4FB5
:104470000E94F10DAE0147585F4FB101C8010E9483
:104480003B0EC8010E94A20C4B015C01C8010E94B6
:10449000690DCE0187589F4F0E94690D65ED74E04C
:1044A000CE0187589F4F0E94F10DAE0147585F4FD4
:1044B000B101C8010E943B0EC8010E94A20CC45366
:1044C000DF4F688379838A839B83CC5CD040C801AB
:1044D0000E94690DCE0187589F4F0E94690D6FECB5
:1044E00074E0CE0187589F4F0E94F10DAE014758EE
:1044F0005F4FB101C8010E943B0EC8010E94A20C8F
:104500006093840170938501809386019093870165
:10451000C8010E94690DCE0187589F4F0E94690D06
:1045200069EC74E0CE0187589F4F0E94F10DAE01F7
:1045300047585F4FB101C8010E943B0EC8010E945D
:10454000AD0C7093710160937001C8010E94690DF8
:10455000CE0187589F4F0E94690D63EC74E0CE0135
:1045600087589F4F0E94F10DAE0147585F4FB10130
:10457000C8010E943B0EC8010E94A20C60939801E2
:104580007093990180939A0190939B01C8010E94B6
:10459000690DCE0187589F4F0E94690D61EC74E050
:1045A000CE0187589F4F0E94F10DAE0147585F4FD3
:1045B000B101C8010E943B0EC8010E94A20C20E07C
:1045C00030E04AE754E40E94C8376093900170934A
:1045D00091018093920190939301C8010E94690D0B
:1045E000CE0187589F4F0E94690D6CEB74E0CE019D
:1045F00087589F4F0E94F10DAE0147585F4FB101A0
:10460000C8010E943B0EC8010E94AD0C6B017C01E9
:10461000C8010E94690DCE0187589F4F0E94690D05
:10462000CA94CD28CE28CF2809F085C040909801A3
:104630005090990160909A0170909B01A3019201A2
:10464000C501B4010E94C837C053DF4F6883798326
:104650008A839B83C05DD04020910001309101018D
:104660004091020150910301C501B4010E94C83775
:10467000AB01BC01EE24E394C053DF4F08811981E4
:104680002A813B81C05DD04080E00E94F70F8111FC
:1046900008C085E694E00E94940CCE018C539F4F95
:1046A0002BC82091C4013091C5014091C6015091A1
:1046B000C701C501B4010E945C3720E030E040EF43
:1046C00052E40E94703818161CF484E094E0E3CFA2
:1046D0002091C8013091C9014091CA015091CB018C
:1046E000C453DF4F688179818A819B81CC5CD04043
:1046F0000E945C3720E030E040EF52E40E947038C6
:1047000018161CF482EA93E0C6CF20E030E0A9013D
:10471000C301B2010E94E335181654F420E030E0E2
:1047200048EC51E4C301B2010E94703818161CF421
:104730008BE293E0B0CF67E273E0CE0187589F4FE2
:104740000E94F10DAE0147585F4FB101CE01865670
:104750009F4F0E943B0ECE0186569F4F0E94A20C97
:104760006B017C01CE0186569F4F0E94690DCE01E0
:1047700087589F4F0E94690D20E030E0A901C701D2
:10478000B6010E9470381816B4F4A7019601609122
:10479000CC017091CD018091CE019091CF010E940A
:1047A0005B3720E030E0A9010E94E33587FF03C0BA
:1047B0008FEC92E070CF4090CC015090CD01609092
:1047C000CE017090CF0120E030E0A901C701B60111
:1047D0000E94E33587FFA5C01092880110928901DD
:1047E00010928A0110928B0140928C0150928D019F
:1047F00060928E0170928F016BEC72E0CE0187584F
:104800009F4F0E94F10DAE0147585F4FB101CE019D
:1048100086569F4F0E943B0ECE0186569F4F0E94A8
:10482000A20C6B017C01CE0186569F4F0E94690D40
:10483000CE0187589F4F0E94690D20E030E0A9010A
:10484000C701B6010E94E33587FF7AC08FEF9FEF63
:10485000DC0180936C0190936D01A0936E01B09385
:104860006F018091840190918501A0918601B091A2
:104870008701C053DF4F88839983AA83BB83C05DC0
:10488000D040C12CD12C7601260137012DEC3CEC17
:104890004CEC5DE3C453DF4F688179818A819B8151
:1048A000CC5CD0400E945C37A30192010E9470381A
:1048B00087FD65C0A5019401C701B6010E945C3760
:1048C0006B017C01C053DF4F288139814A815B81B4
:1048D000C05DD040C301B2010E945C372B013C0196
:1048E0002DEC3CEC4CEC5DE30E945C37C453DF4F95
:1048F000288139814A815B81CC5CD0400E94E335BC
:10490000181624F2C053DF4F288139814A815B8118
:10491000C05DD040C701B6010E945C376B017C01CD
:10492000B5CFA7019601C301B2010E945B37609326
:1049300088017093890180938A0190938B0154CFF1
:104940000E940F050E94E8352B013C0120E030E079
:104950004AE754E4C701B6010E9449369B01AC0105
:10496000C301B2010E945C370E943A3860936C0127
:1049700070936D0180936E0190936F0172CF60917F
:10498000700170917101072E000C880B990B0E9429
:10499000EA35A70196010E9449366093720170932F
:1049A000730180937401909375018091C40190917B
:1049B000C501A091C601B091C7018093AA0190934F
:1049C000AB01A093AC01B093AD018091C80190916F
:1049D000C901A091CA01B091CB018093A601909327
:1049E000A701A093A801B093A90180929C01909285
:1049F0009D01A0929E01B0929F01C453DF4F888118
:104A00009981AA81BB81CC5CD04080938001909336
:104A10008101A0938201B093830110927F011092D3
:104A20007E011092B60110927A0110927B011092D1
:104A30007C0110927D011092760110927701109204
:104A40007801109279011092A1011092A00181E0E9
:104A50008093B2011092B4011092B30166EC72E03F
:104A6000CE0187589F4F0E94F10DAE0147585F4F0E
:104A7000B101CE0186569F4F0E943B0ECE01865655
:104A80009F4F0E94AD0C6B017C01CE0186569F4F5B
:104A90000E94690DCE0187589F4F0E94690DCD2855
:104AA000CE28CF28B1F410929C0110929D01109253
:104AB0009E0110929F01109280011092810110922C
:104AC00082011092830186E090E09093B40180937C
:104AD000B3010E940F056093940170939501809338
:104AE000960190939701609172017091730180918A
:104AF000740190917501C056DF4F19821882C05A17
:104B0000D040CE55DF4F19821882C25AD040CC55C2
:104B1000DF4F19821882C45AD0408E0107581F4FA8
:104B200022E044E00E94CD31009709F488C0FC01E6
:104B300001900020E9F73197AF01481B590BBC01E8
:104B4000CE0180569F4F0E94FA0D6DE972E0CE01B2
:104B500087589F4F0E94F10DBE0167587F4FCE01CD
:104B600086569F4F0E94320EBE0160567F4FCE0187
:104B700086569F4F0E94990D0E947D038EE391E01F
:104B80000E94EB0ACE0186569F4F0E94690DCE010E
:104B900087589F4F0E94690DCE0180569F4F0E94FB
:104BA000690D68E972E0CE0187589F4F0E94F10DB0
:104BB000AE0147585F4FB101CE0186569F4F0E940C
:104BC0003B0ECE0186569F4F0E94AD0C6B017C01BF
:104BD000CE0186569F4F0E94690DCE0187589F4F88
:104BE0000E94690DCA94CD28CE28CF2809F0F1CAB9
:104BF000209198013091990140919A0150919B0127
:104C0000C501B4010E94C8372B013C01209100016D
:104C1000309101014091020150910301C501B4019D
:104C20000E94C837AB01BC01E12C9301820180E0F6
:104C30000E94F70F60E08DE00E948604CACACE0190
:104C400080569F4F0E94570D80CF66E972E0C801E1
:104C50000E94F10DB801CE018C539F4F0E94D30CDE
:104C6000811118C064E972E0CE0187589F4F0E94FD
:104C7000F10DBE0167587F4FCE018C539F4F0E94AC
:104C8000D30C8111F3C0F12CCE0187589F4F0E94A5
:104C9000690DF1C0F12CC853DF4F88819981C85C40
:104CA000D040029708F4E5C0CC53DF4FE881F9818A
:104CB000C45CD040309739F081818B3209F431C522
:104CC0008D3209F42EC5F110DECFC8010E94690DA6
:104CD00069E772E0C8010E94F10DB801CE018C5362
:104CE0009F4F0E94EE0CFF24F394811119C065E7D9
:104CF00072E0CE0187589F4F0E94F10DBE016758A8
:104D00007F4FCE018C539F4F0E94EE0CFF24F394F3
:104D1000811101C0F12CCE0187589F4F0E94690D6F
:104D2000C8010E94690DFF2009F47CC28091B20184
:104D30008111B3CC00910C0110910D0182E390E040
:104D40000E94AC0A60E08DE00E948604CE018C5384
:104D50009F4F0E947D03812C912C5401C501B40109
:104D60000E94EA352B013C0162E772E0CE018758D0
:104D70009F4F0E94F10DBE0167587F4FCE018C53AB
:104D80009F4F0E94EE0C882309F433C260E070E06C
:104D900080E89FE3C0900801D0900901E0900A01EB
:104DA000F0900B01A70196010E94C837C453DF4F52
:104DB000688379838A839B83CC5CD040CE018758FB
:104DC0009F4F0E94690DC453DF4F288139814A816A
:104DD0005B81CC5CD040C301B2010E94E33587FF08
:104DE0000DC22091CC013091CD014091CE01509166
:104DF000CF01C701B6010E945C3720E030E044ECEF
:104E000052E40E94703818160CF4F8C160E081E09A
:104E10000E94710AC501B40128EC30E040E050E086
:104E20000E940B39672B682B692BD1F46DE672E079
:104E300089ED92E00E94CC0D66E672E083ED92E08F
:104E40000E94CC0D80E090E0A0E8BFEB8093AE0123
:104E50009093AF01A093B001B093B1010E94180CE0
:104E60009FEF891A990AA90AB90A78CFFF24F39407
:104E700012CFF11008CFC8010E94690DFF2009F47C
:104E800027CF8091B201811108CCC853DF4F8881B0
:104E90009981C85CD040812C912C60E8A62E6FE3EC
:104EA000B62E24013501029761F0812C912C40E24D
:104EB000A42E41E4B42E412C512C50E8652E50E430
:104EC000752E62E972E0CE0187589F4F0E94F10D66
:104ED000BE0167587F4FCE018C539F4F0E94D30C69
:104EE000A1E0C952DF4FA883C75DD040882329F0D5
:104EF000C952DF4F1882C75DD040CE0187589F4FFF
:104F00000E94690DC853DF4F88819981C85CD040E9
:104F1000029778F0CC53DF4FE881F981C45CD04030
:104F2000309739F081818D3221F4B7FAB094B7F817
:104F3000B094CE018C539F4F0E947D038EE391E08D
:104F40000E94EB0AC952DF4FB881C75DD040CB2E1B
:104F5000D12CF601EE0FFF1FEE0FFF1FC453DF4FE2
:104F6000F983E883CC5CD040EC53FE4FC080D18005
:104F7000E280F380A5019401C701B6010E945C376D
:104F8000B62EA72E8C0120E030E0A9010E94E33567
:104F900087FF04C0B12CA12C00E010E0C453DF4F08
:104FA000E881F981CC5CD040EC5EFE4F8081C0533B
:104FB000DF4F8883C05DD0409181CC52DF4F988312
:104FC000C45DD040A281CB52DF4FA883C55DD040E5
:104FD000B381CA52DF4FB883C65DD0402B2D3A2D26
:104FE000A801BC01CD010E94E33587FD14C0C05368
:104FF000DF4FB882C05DD040CC52DF4FA882C45D85
:10500000D040CB52DF4F0883C55DD040CA52DF4F3E
:105010001883C65DD040A7019601C053DF4F688159
:10502000C05DD040CC52DF4F7881C45DD040CB52C0
:10503000DF4F8881C55DD040CA52DF4F9881C65D81
:10504000D0400E945B374B015C0120E030E0A901B9
:105050000E94703875016401181624F0F7FAF09474
:10506000F7F8F094C453DF4FE881F981CC5CD0406D
:10507000E050FF4F2081318142815381C501B4014D
:105080000E94C8370E943A384B015C018114910498
:10509000A104B104C1F0A3019201C701B6010E94AD
:1050A000C8372B013C01C501B4010E94EA35AB01B0
:1050B000BC01E12C93018201C952DF4F8881C75D99
:1050C000D0400E94F70F0E940F054B015C01C453B2
:1050D000DF4F08811981CC5CD0400C531E4F412C0E
:1050E000512C20E8622E2FEB722EC053DF4F288107
:1050F000C05DD040CC52DF4F3881C45DD040CB5230
:10510000DF4F4881C55DD040CA52DF4F5881C65D30
:10511000D040F80160817181828193810E945B3768
:105120006B017C0120E030E0A9010E947038181664
:105130004CF52AE939E949E95EE3C701B6010E9465
:10514000703818164CF161E872E089ED92E00E9427
:10515000CC0D6CE772E083ED92E00E94CC0D61E033
:105160008DE00E94860480E090E0A0E8BFEB809391
:10517000AE019093AF01A093B001B093B1010E9432
:10518000180C27C82AE939E949E95EEBC701B601DD
:105190000E94E33587FFD7CF0E941B050E940F05B1
:1051A000681979098A099B0963337105810591059D
:1051B00008F49BCF6BE872E089ED92E00E94CC0D81
:1051C00066E872E083ED92E00E94CC0D61E08DE034
:1051D0000E9486044092AE015092AF016092B001ED
:1051E0007092B1010E94180C0E940F054B015C01E6
:1051F0007CCF60E070E080E291E4CCCD61E672E0CB
:1052000089ED92E00E94CC0D6CE572E083ED92E0B6
:105210000E94CC0D61E08DE00E948604C8010E94CE
:10522000AC0AA1CF69E572E0C8010E94F10DB80196
:10523000CE018C539F4F0E94EE0CFF24F3948111FA
:1052400019C065E572E0CE0187589F4F0E94F10DAD
:10525000BE0167587F4FCE018C539F4F0E94EE0CCA
:10526000FF24F394811101C0F12CCE0187589F4F88
:105270000E94690DC8010E94690DFF2009F4ABC0AE
:105280008091B201811109CA00910C0110910D01A8
:1052900082E390E00E94AC0A8CE491E00E94860CCC
:1052A00060E08DE00E948604812C912C5401C501A0
:1052B000B4010E94EA352B013C0162E572E0CE01A7
:1052C00087589F4F0E94F10DBE0167587F4FCE0156
:1052D0008C539F4F0E94EE0C882309F46EC060E04F
:1052E00070E080E89FE3C0900801D0900901E09051
:1052F0000A01F0900B01A70196010E94C837C45320
:10530000DF4F688379838A839B83CC5CD040CE0156
:1053100087589F4F0E94690DC453DF4F2881398100
:105320004A815B81CC5CD040C301B2010E94E3356D
:1053300087FF48C02091CC013091CD014091CE0132
:105340005091CF01C701B6010E945C3720E030E0E8
:10535000A9010E94E33587FD35C060E08FEF0E9410
:10536000710AC501B40128EC30E040E050E00E9431
:105370000B39672B682B692BD1F46DE472E089ED52
:1053800092E00E94CC0D66E472E083ED92E00E9410
:10539000CC0D80E090E0A0E8BFEB8093AE0190934D
:1053A000AF01A093B001B093B1010E94180C9FEF20
:1053B000891A990AA90AB90A7ACF60E070E080E2F6
:1053C00091E491CF61E472E089ED92E00E94CC0D0E
:1053D0006CE372E01BCF62E372E0CE0187589F4F0F
:1053E0000E94F10DBE0167587F4FCE018C539F4F35
:1053F0000E94EE0CF82ECE0187589F4F0E94690D37
:10540000FF2009F497C060E372E0CE0187589F4FF8
:105410000E94F10DAE0147585F4FB101C8010E94D3
:105420003B0EC8010E94A20C6093C4017093C50199
:105430008093C6019093C701C8010E94690DCE01F7
:1054400087589F4F0E94690D6EE272E0CE01875827
:105450009F4F0E94F10DAE0147585F4FB101C80147
:105460000E943B0EC8010E94A20C6093C801709379
:10547000C9018093CA019093CB01C8010E94690DB4
:10548000CE0187589F4F0E94690D6CE272E0CE01F9
:1054900087589F4F0E94F10DAE0147585F4FB101F1
:1054A000C8010E943B0EC8010E94A20C6093CC016F
:1054B0007093CD018093CE019093CF01C8010E94DB
:1054C000690DCE0187589F4F0E94690D80912A0275
:1054D00090912B02A0912C02B0912D0280932E026C
:1054E00090932F02A0933002B093310280911E025C
:1054F00090911F02A0912002B0912102809322027C
:1055000090932302A0932402B09325021092B2013B
:1055100080E090E0AAE7B4EC8093AE019093AF01F5
:10552000A093B001B093B1018FE491E00E94860C8A
:105530000C94E92064E272E0CE0187589F4F0E94EC
:10554000F10DBE0167587F4FCE018C539F4F0E94D3
:10555000EE0C182FCE0187589F4F0E94690D112322
:1055600009F46BC06BE172E089ED92E00E94CC0D12
:1055700066E172E083ED92E00E94CC0D61E08DE087
:105580000E948604C12CD12C90E8E92E9FEBF92EC5
:10559000C092AE01D092AF01E092B001F092B101A1
:1055A0000E94180C90E080E00E942C2E6DE072E0CA
:1055B00089ED92E00E94CC0D68E072E083ED92E00C
:1055C0000E94CC0D61E08DE00E948604C092AE0185
:1055D000D092AF01E092B001F092B1010E94180C9C
:1055E00081E090E00E942C2E1092C4011092C5011F
:1055F0001092C6011092C7011092C8011092C90101
:105600001092CA011092CB0163E072E089ED92E042
:105610000E94CC0D6EEF71E083ED92E00E94CC0D04
:1056200061E08DE00E948604C092AE01D092AF018D
:10563000E092B001F092B101A2CD69EF71E0CE012C
:1056400087589F4F0E94F10DBE0167587F4FCE01D2
:105650008C539F4F0E94EE0C182FCE0187589F4FFE
:105660000E94690D112311F40C94E9208091B2017C
:10567000811113C800910C0110910D0182E390E09B
:105680000E94AC0A64EF71E089ED92E00E94CC0DBB
:105690006BEE71E083ED92E00E94CC0D60E08DE056
:1056A0000E948604C12CD12C80E8E82E8FEBF82EC6
:1056B000C092AE01D092AF01E092B001F092B10180
:1056C0000E94180C82E090E00E942C2E80E090E076
:1056D000A4ECB2E48093CC019093CD01A093CE01D1
:1056E000B093CF0166EE71E089ED92E00E94CC0D9F
:1056F00061EE71E083ED92E00E94CC0D61E08DE0FF
:105700000E948604C092AE01D092AF01E092B00137
:10571000F092B1010E94180CC8010E94AC0A0C94CE
:10572000E920F110B1CAC8010E94690DAACB1F92ED
:105730000F920FB60F9211242F933F934F935F93C5
:105740006F937F938F939F93AF93BF93EF93FF9349
:1057500086E392E00E94D703FF91EF91BF91AF9152
:105760009F918F917F916F915F914F913F912F9179
:105770000F900FBE0F901F9018951F920F920FB6AB
:105780000F9211242F938F939F93EF93FF93E091A8
:105790004602F09147028081E0914C02F0914D0267
:1057A00082FD1BC0908180914F028F5F8F7320918B
:1057B0005002821741F0E0914F02F0E0EA5CFD4FA9
:1057C000958F80934F02FF91EF919F918F912F9131
:1057D0000F900FBE0F901F9018958081F4CF1F92ED
:1057E0000F920FB60F9211242F933F938F939F9395
:1057F000AF93BF938091BC019091BD01A091BE0178
:10580000B091BF013091BB0123E0230F2D3758F534
:105810000196A11DB11D2093BB018093BC01909303
:10582000BD01A093BE01B093BF018091C0019091D2
:10583000C101A091C201B091C3010196A11DB11D8A
:105840008093C0019093C101A093C201B093C301A2
:10585000BF91AF919F918F913F912F910F900FBE6C
:105860000F901F90189526E8230F0296A11DB11DD9
:10587000D2CF1F920F920FB60F9211244F925F92C8
:105880006F927F928F929F92AF92BF92EF92FF9210
:105890000F931F932F933F934F935F936F937F9338
:1058A0008F939F93AF93BF93CF93DF93EF93FF9328
:1058B00093B183B182958170C82F80E0D82F8C2F4F
:1058C00093FF06C0C2E0D0E0813011F0C3E0D0E029
:1058D000E0915E010E2E000CFF0BEC17FD0709F4A2
:1058E00043C000912E0210912F022091300230917E
:1058F00031028090C4019090C501A090C601B09083
:10590000C701409000015090010160900201709029
:10591000030144E0E42EF12CCF010196B7010E946F
:10592000D5388C179D0709F0C5C00F5F1F4F2F4F4B
:105930003F4F00932E0210932F022093300230939A
:105940003102A3019201C501B4010E945C3760934A
:10595000C4017093C5018093C6019093C70181E093
:1059600080935D01C0935E01C9B1D0E0CC0FCD2F13
:10597000CC1FDD0B8C2F189B06C0C2E0D0E081301D
:1059800011F0C3E0D0E0E0915C010E2E000CFF0BA3
:10599000EC17FD0709F443C0009122021091230285
:1059A00020912402309125028090C8019090C90175
:1059B000A090CA01B090CB01409004015090050125
:1059C000609006017090070184E0E82EF12CCF0171
:1059D0000196B7010E94D5388C179D0709F0C1C008
:1059E0000F5F1F4F2F4F3F4F009322021093230250
:1059F0002093240230932502A3019201C501B40132
:105A00000E945C376093C8017093C9018093CA01FA
:105A10009093CB0181E080935B01C0935C01809106
:105A20005F01181694F480915A018F3F39F08FEF7F
:105A300080935A0161E082E10E948604439A439870
:105A400080915F01815080935F0180915F0187FFAA
:105A500012C080915A01813039F081E080935A015F
:105A600060E082E10E948604439A439880915F013E
:105A70008F5F80935F01FF91EF91DF91CF91BF9195
:105A8000AF919F918F917F916F915F914F913F91D6
:105A90002F911F910F91FF90EF90BF90AF909F902B
:105AA0008F907F906F905F904F900F900FBE0F90F0
:105AB0001F901895CF010396B7010E94D5388C1717
:105AC0009D07E9F4015011092109310900932E02C3
:105AD00010932F022093300230933102A3019201E0
